:100000000C9461000C947E000C947E000C947E0095
:100010000C947E000C947E000C947E000C947E0068
:100020000C947E000C947E000C947E000C947E0058
:100030000C947E000C947E000C947E000C947E0048
:100040000C94EF000C947E000C947E000C947E00C7
:100050000C947E000C947E000C947E000C947E0028
:100060000C947E000C947E00000000002400270009
:100070002A0000000000250028002B0000000000DE
:1000800023002600290004040404040404040202DA
:100090000202020203030303030301020408102007
:1000A0004080010204081020010204081020000012
:1000B0000007000201000003040600000000000029
:1000C000000011241FBECFEFD8E0DEBFCDBF11E08E
:1000D000A0E0B1E0E2EFF4E002C005900D92A232A0
:1000E000B107D9F711E0A2E2B1E001C01D92AB3235
:1000F000B107E1F70E9468020C9477020C940000AB
:10010000FF920F931F93F82E8B0161E00E9414025F
:1001100083E191E00E9490018F2D60E00E94140223
:10012000C8010E9490011F910F91FF900895EF92D6
:10013000FF920F931F93CF93DF937C01162F072F0E
:100140006EEB7AE00E948000212F302FC901EC0174
:1001500016C0813349F4C70163E171E00E94800059
:10016000C70169EC74E008C0C70169EC74E00E9443
:100170008000C70163E171E00E94800021968881C0
:10018000882339F7DF91CF911F910F91FF90EF9066
:10019000089582E090E060E071E00E94970082E0C4
:1001A00061E00E94140283E191E00E94900182E0EC
:1001B00060E00E9414026AE070E080E090E00E943B
:1001C0003701089582E061E00E94D5018DE061E091
:1001D0000E94D5018DE060E00E94140208951F92F4
:1001E0000F920FB60F9211242F933F938F939F93EB
:1001F000AF93BF938091260190912701A091280190
:10020000B091290130912A010196A11DB11D232F22
:100210002D5F2D3720F02D570196A11DB11D209384
:100220002A018093260190932701A0932801B0937F
:1002300029018091220190912301A0912401B09184
:1002400025010196A11DB11D8093220190932301E8
:10025000A0932401B0932501BF91AF919F918F91FD
:100260003F912F910F900FBE0F901F9018959B01FB
:10027000AC017FB7F8948091220190912301A09165
:100280002401B091250166B5A89B05C06F3F19F008
:100290000196A11DB11D7FBFBA2FA92F982F8827C6
:1002A000860F911DA11DB11D62E0880F991FAA1F25
:1002B000BB1F6A95D1F7BC012DC0FFB7F8948091A0
:1002C000220190912301A0912401B0912501E6B56E
:1002D000A89B05C0EF3F19F00196A11DB11DFFBFFE
:1002E000BA2FA92F982F88278E0F911DA11DB11D00
:1002F000E2E0880F991FAA1FBB1FEA95D1F7861B62
:10030000970B885E9340C8F22150304040405040E7
:1003100068517C4F211531054105510571F608954D
:10032000019739F0880F991F880F991F029701973D
:10033000F1F70895789484B5826084BD84B58160B6
:1003400084BD85B5826085BD85B5816085BDEEE6DD
:10035000F0E0808181608083E1E8F0E010828081BC
:1003600082608083808181608083E0E8F0E080812A
:1003700081608083E1EBF0E0808184608083E0EB4A
:10038000F0E0808181608083EAE7F0E08081846032
:10039000808380818260808380818160808380818E
:1003A000806880831092C1000895CF93DF93482F17
:1003B00050E0CA0186569F4FFC0134914A575F4F67
:1003C000FA018491882369F190E0880F991FFC015C
:1003D000E859FF4FA591B491FC01EE58FF4FC5912C
:1003E000D491662351F42FB7F8948C91932F909564
:1003F00089238C93888189230BC0623061F42FB7E5
:10040000F8948C91932F909589238C938881832BDA
:1004100088832FBF06C09FB7F8948C91832B8C9351
:100420009FBFDF91CF910895482F50E0CA018255B8
:100430009F4FFC012491CA0186569F4FFC01949165
:100440004A575F4FFA013491332309F440C0222305
:1004500051F1233071F0243028F42130A1F0223002
:1004600011F514C02630B1F02730C1F02430D9F492
:1004700004C0809180008F7703C0809180008F7DC1
:100480008093800010C084B58F7702C084B58F7DC3
:1004900084BD09C08091B0008F7703C08091B00007
:1004A0008F7D8093B000E32FF0E0EE0FFF1FEE583A
:1004B000FF4FA591B4912FB7F894662321F48C9146
:1004C0009095892302C08C91892B8C932FBF08951E
:1004D000CF93DF930E949A010E94E200C0E0D0E037
:1004E0000E94C9002097E1F30E940000F9CFF89420
:0204F000FFCF3C
:1004F20030303030303030303030313031303130F7
:1005020030303030313030313030303030313031E5
:020512000000E7
:00000001FF
